1720201912345689ASMITH DONCIC NILES                      T000000000SMITH DONCIC NILES                      7200000000001  0000000000000000000017 00000000006768525 00000000000000000                                                                                                                                                                                                                                                                                                                                
2720201912345689A12345689A         SMITH DONCIC NILES                      1                         V1                         NL1US00183L1026                                              ANGI HOMESERVICES INC- A                                                                                                                                                                                                       US20191217A00000000 00000000226632 00000000000000A000000030000 10000                    
2720201912345689A12345689A         SMITH DONCIC NILES                      1                         V1                         NL1GG00B4L84979                                              BURFORD CAP LD                                                                                                                                                                                                                 GG20190122A00000000 00000000388994 00000000000000A000000046300 10000                    
2720201912345689A12345689A         SMITH DONCIC NILES                      1                         V1                         NL1US26929N1028                                              EVI INDUSTRIES INC                                                                                                                                                                                                             US20190131A00000000 00000000625418 00000000000000A000000026000 10000                    
2720201912345689A12345689A         SMITH DONCIC NILES                      1                         V1                         NL1US30303M1027                                              FACEBOOK INC. - CLASS                                                                                                                                                                                                          US20190101A00000000 00000000384431 00000000000000A000000002100 10000                    
2720201912345689A12345689A         SMITH DONCIC NILES                      1                         V1                         NL1US38911N2062                                              GRAVITY CO. LTD. - AM                                                                                                                                                                                                          US20191018A00000000 00000000340242 00000000000000A000000010200 10000                    
2720201912345689A12345689A         SMITH DONCIC NILES                      1                         V1                         NL1US47215P1066                                              JD.COM INC. - AMERICA                                                                                                                                                                                                          US20190101A00000000 00000000439903 00000000000000A000000014000 10000                    
2720201912345689A12345689A         SMITH DONCIC NILES                      1                         V1                         NL1GB0032398678                                              JUDGES SCIENTFC                                                                                                                                                                                                                GB20190312A00000000 00000000966715 00000000000000A000000014500 10000                    
2720201912345689A12345689A         SMITH DONCIC NILES                      1                         V1                         NL1IT0001447785                                              MONDO TV                                                                                                                                                                                                                       IT20190101A00000000 00000000264095 00000000000000A000000110500 10000                    
2720201912345689A12345689A         SMITH DONCIC NILES                      1                         V1                         NL1GB00BYNFCH09                                              ROCKROSE ENERGY                                                                                                                                                                                                                GB20190725A00000000 00000000476626 00000000000000A000000021600 10000                    
2720201912345689A12345689A         SMITH DONCIC NILES                      1                         V1                         NL1US9837931008                                              XPO LOGISTICS INC.                                                                                                                                                                                                             US20190207A00000000 00000000490606 00000000000000A000000006900 10000                    
2720201912345689A12345689A         SMITH DONCIC NILES                      1                         V1                         IE1FR0013263878                                              UMANIS - REG                                                                                                                                                                                                                   FR20190101A00000000 00000000172800 00000000000000A000000030000 10000                    
2720201912345689A12345689A         SMITH DONCIC NILES                      1                         V1                         IE1FR0011665280                                              FIGEAC-AERO                                                                                                                                                                                                                    FR20190101A00000000 00000000065100 00000000000000A000000007000 10000                    
2720201912345689A12345689A         SMITH DONCIC NILES                      1                         V1                         IE1NL0013654783                                              PROSUS NV                                                                                                                                                                                                                      NL20190912A00000000 00000000299385 00000000000000A000000004500 10000                    
2720201912345689A12345689A         SMITH DONCIC NILES                      1                         V1                         IE1FR0013295789                                              TFF GROUP                                                                                                                                                                                                                      FR20190911A00000000 00000000330300 00000000000000A000000009000 10000                    
2720201912345689A12345689A         SMITH DONCIC NILES                      1                         V1                         IE147215P106                                                 JD.COM INC-ADR                                                                                                                                                                                                                 4720190101A00000000 00000000628391 00000000000000A000000020000 10000                    
2720201912345689A12345689A         SMITH DONCIC NILES                      1                         V1                         IE1BMG9001E1286                                              LIBERTY LATIN AMERIC-CL C                                                                                                                                                                                                      BM20190101A00000000 00000000173552 00000000000000A000000010000 10000                    
2720201912345689A12345689A         SMITH DONCIC NILES                      1                         V1                         IE1MHY8564W1030                                              TEEKAY CORP                                                                                                                                                                                                                    MH20190215A00000000 00000000495335 00000000000000A000000104400 10000                    
